:100000000C9435000C945D000C945D000C945D0024
:100010000C945D000C945D000C945D000C945D00EC
:100020000C945D000C945D000C945D000C945D00DC
:100030000C945D000C945D000C945D000C945D00CC
:100040000C9472020C945D000C9440020C941A0201
:100050000C945D000C945D000C945D000C945D00AC
:100060000C945D000C945D00250411241FBECFEF9D
:10007000D8E0DEBFCDBF21E0AEE4B1E001C01D920B
:10008000AE3FB207E1F711E0A0E0B1E0EEE7FDE03E
:1000900002C005900D92AE34B107D9F710E0C5E368
:1000A000D0E004C02197FE010E94C504C433D107EB
:1000B000C9F70E94BC020C94BD060C940000AF92DC
:1000C000BF92CF92DF92EF92FF920F931F93CF9345
:1000D000DF936C017B018B01040F151FEB015E01A7
:1000E000AE18BF08C017D10759F06991D601ED913C
:1000F000FC910190F081E02DC6010995892B79F7DB
:10010000C501DF91CF911F910F91FF90EF90DF908C
:10011000CF90BF90AF900895FC01538D448D252F53
:1001200030E0842F90E0821B930B541710F0CF9691
:10013000089501970895FC01918D828D981761F0C3
:10014000A28DAE0FBF2FB11D5D968C91928D9F5FDA
:100150009F73928F90E008958FEF9FEF08952FB7D0
:10016000F8948091590190915A01A0915B01B0914E
:100170005C012FBF8093650190936601A093670196
:10018000B09368018DE591E00E949B0097FF26C027
:100190002FB7F8948091590190915A01A0915B0179
:1001A000B0915C012FBF4091650150916601609153
:1001B000670170916801841B950BA60BB70B4091EA
:1001C0006101509162016091630170916401841733
:1001D0009507A607B707B0F28FEF9FEF0895FC01D0
:1001E000918D828D981731F0828DE80FF11D858DEC
:1001F00090E008958FEF9FEF0895FC01918D228D7F
:10020000892F90E0805C9F4F821B91098F73992703
:1002100008958DE591E00E94FD0021E0892B09F40D
:1002200020E0822F089580E090E0892B29F00E9441
:10023000090181110C9400000895FC01A48DA80F00
:10024000B92FB11DA35ABF4F2C91848D90E0019618
:100250008F739927848FA689B7892C93A089B18938
:100260008C91837080648C93938D848D981306C0D9
:100270000288F389E02D80818F7D80830895EF923D
:10028000FF920F931F93CF93DF93EC0181E0888F50
:100290009B8D8C8D98131AC0E889F989808185FF20
:1002A00015C09FB7F894EE89FF896083E889F989C2
:1002B00080818370806480839FBF81E090E0DF91C4
:1002C000CF911F910F91FF90EF900895F62E0B8D17
:1002D00010E00F5F1F4F0F731127E02E8C8D8E11D2
:1002E0000CC00FB607FCFACFE889F989808185FF39
:1002F000F5CFCE010E941D01F1CFEB8DEC0FFD2F4C
:10030000F11DE35AFF4FF0829FB7F8940B8FEA89F3
:10031000FB8980818062CFCFCF93DF93EC01888D02
:100320008823B9F0AA89BB89E889F9898C9185FD70
:1003300003C0808186FD0DC00FB607FCF7CF8C91FE
:1003400085FFF2CF808185FFEDCFCE010E941D0198
:10035000E9CFDF91CF9108953FB7F89480914F0195
:1003600090915001A0915101B091520126B5A89BE6
:1003700005C02F3F19F00196A11DB11D3FBFBA2F37
:10038000A92F982F8827BC01CD01620F711D811DF7
:10039000911D42E0660F771F881F991F4A95D1F77C
:1003A0000895CF93DF93D0E0C0E0009771F0FC0197
:1003B00001900020E9F73197AF01481B590BBC01B0
:1003C0008DE591E00E945F00EC0142E050E068E1C1
:1003D00071E08DE591E00E945F008C0F9D1FDF9121
:1003E000CF9108950F931F93CF93DF93EC018881F2
:1003F0009981009759F02A813B812617370730F001
:1004000081E0DF91CF911F910F9108958B016F5F74
:100410007F4F0E94F005009759F0998388831B83D2
:100420000A832C813D81232B59F7FC011082E8CFF0
:1004300080E0E7CF1F920F920FB60F9211242F93F7
:100440003F934F935F936F937F938F939F93AF935C
:10045000BF93EF93FF938DE591E00E941D01FF9103
:10046000EF91BF91AF919F918F917F916F915F912C
:100470004F913F912F910F900FBE0F901F901895A5
:100480001F920F920FB60F9211242F938F939F9369
:10049000EF93FF93E0916D01F0916E018081E09107
:1004A0007301F091740182FD1BC0908180917601EF
:1004B0008F5F8F7320917701821741F0E091760171
:1004C000F0E0E35AFE4F958F80937601FF91EF9114
:1004D0009F918F912F910F900FBE0F901F901895A5
:1004E0008081F4CF1F920F920FB60F9211242F9399
:1004F0003F938F939F93AF93BF93809159019091B6
:100500005A01A0915B01B0915C0130914E0123E052
:10051000230F2D3758F50196A11DB11D20934E01D3
:100520008093590190935A01A0935B01B0935C01B1
:1005300080914F0190915001A0915101B0915201D1
:100540000196A11DB11D80934F0190935001A0937E
:100550005101B0935201BF91AF919F918F913F9103
:100560002F910F900FBE0F901F90189526E8230F24
:100570000296A11DB11DD2CFCF93DF93CDB7DEB7C9
:1005800028970FB6F894DEBF0FBECDBF789484B520
:10059000826084BD84B5816084BD85B5826085BD7F
:1005A00085B5816085BD80916E00816080936E000D
:1005B00010928100809181008260809381008091FF
:1005C00081008160809381008091800081608093B0
:1005D00080008091B10084608093B1008091B00070
:1005E00081608093B00080917A00846080937A006B
:1005F00080917A00826080937A0080917A00816095
:1006000080937A0080917A00806880937A001092BB
:10061000C100E0916D01F0916E0182E08083E09174
:100620006901F0916A011082E0916B01F0916C0117
:100630008FEC808310927501E0917101F09172014D
:1006400086E08083E0916F01F0917001808180618C
:100650008083E0916F01F0917001808188608083D8
:10066000E0916F01F0917001808180688083E0915A
:100670006F01F091700180818F7D8083109258010D
:1006800010925701109254011092530193E0692E79
:10069000712C24E0A22EB12C88248394912C0091FB
:1006A0005701109158010230110509F4C5C0BCF57D
:1006B0000115110509F442C00130110509F447C0C4
:1006C0000E94AC011B012C0184E6C82ED12CE12C28
:1006D000F12C0E94AC016219730984099509683EE6
:1006E000734081059105A8F381E0C81AD108E1089B
:1006F000F10898EE290E93E0391E411C511CC114DB
:10070000D104E104F10429F780E090E0892B39F26B
:100710000E940901882319F20E940000C0CF033013
:100720001105A9F00430110559F6809153019091FB
:1007300054018F5B9E4F0E94D101C2CF8BE191E0AB
:100740000E94D1019092580180925701B9CF8DE556
:1007500091E00E94FD00181619060CF0B1CF1A8224
:1007600019821C821B821E821D8270E060E0CE0115
:1007700001960E94F20129813A8181112CC0211534
:10078000310519F0C9010E9467051A8219821E827B
:100790001D821C821B820E94AF0097FD24C08F83A4
:1007A0001886ED80FE802FEFE21AF20AB701CE0123
:1007B00001960E94F201882371F329813A818D818B
:1007C0009E81BE01695F7F4F820F931F0E94B60614
:1007D000FE82ED82E0CF1E821D826AE171E0C901D6
:1007E0000E94B606D8CFE980FA8060E070E0CB01C5
:1007F000E114F10419F0C7010E9452046B017093D7
:10080000560160935501E114F10419F0C7010E94EB
:1008100067050130110549F4D0925401C09253018B
:10082000B0925801A09257014BCF80915301909103
:100830005401C80ED91EF0CF8DE291E00E94D10183
:1008400070925801609257013BCFEDE5F1E01382C1
:10085000128288EE93E0A0E0B0E084839583A683C3
:10086000B7838AE091E09183808385EC90E095875F
:10087000848784EC90E09787868780EC90E0918B6A
:10088000808B81EC90E0938B828B82EC90E0958B57
:10089000848B86EC90E0978B868B118E128E138E54
:1008A000148E08951F93FC0199278827BC01E894B2
:1008B00011911032E9F3193010F01E30C8F31B32D9
:1008C00051F01D3249F4689406C00E947904610F0A
:1008D000711D811D911D119110531A30B0F33EF41A
:1008E00090958095709561957F4F8F4F9F4F1F9189
:1008F0000895592F482F372F262F660F771F881FEF
:10090000991F660F771F881F991F620F731F841F1F
:10091000951F660F771F881F991F08952F923F928A
:100920004F925F926F927F928F929F92AF92BF92FF
:10093000CF92DF92EF92FF920F931F93CF93DF93AB
:10094000CDB7DEB7CA1BDB0B0FB6F894DEBF0FBE08
:10095000CDBF09942A88398848885F846E847D8455
:100960008C849B84AA84B984C884DF80EE80FD8057
:100970000C811B81AA81B981CE0FD11D0FB6F894CD
:10098000DEBF0FBECDBFED010895EE0FFF1F059036
:10099000F491E02D09940F931F93CF93DF9382304E
:1009A000910510F482E090E0E091FC01F091FD01EE
:1009B00030E020E0B0E0A0E0309799F42115310557
:1009C00009F44AC0281B390B24303105D8F58A8137
:1009D0009B816115710589F1FB0193838283FE017F
:1009E00011C0408151810281138148175907E0F0FD
:1009F0004817590799F4109761F012960C931297C3
:100A000013961C933296CF01DF91CF911F910F91D6
:100A100008950093FC011093FD01F4CF21153105D9
:100A200051F04217530738F0A901DB019A01BD01CB
:100A3000DF01F801C1CFEF01F9CF9093FD01809361
:100A4000FC01CDCFFE01E20FF31F81939193225061
:100A5000310939832883D7CF2091FA013091FB01E6
:100A6000232B41F420910201309103013093FB01CB
:100A70002093FA01209100013091010121153105E7
:100A800041F42DB73EB74091040150910501241B5C
:100A9000350BE091FA01F091FB01E217F307A0F4A6
:100AA0002E1B3F0B2817390778F0AC014E5F5F4FC4
:100AB0002417350748F04E0F5F1F5093FB014093FA
:100AC000FA01819391939FCFF0E0E0E09CCFCF9328
:100AD000DF930097E9F0FC01329713821282A09114
:100AE000FC01B091FD01ED0130E020E01097A1F490
:100AF00020813181820F931F2091FA013091FB01F7
:100B00002817390709F061C0F093FB01E093FA015F
:100B1000DF91CF910895EA01CE17DF07E8F54A810A
:100B20005B819E0141155105B1F7E901FB83EA8321
:100B300049915991C40FD51FEC17FD0761F48081CD
:100B400091810296840F951FE901998388838281A0
:100B500093819B838A83F0E0E0E012968D919C91D3
:100B600013970097B9F52D913C911197CD010296FD
:100B7000820F931F2091FA013091FB01281739074A
:100B800039F6309751F51092FD011092FC01B093A7
:100B9000FB01A093FA01BCCFD383C2834081518172
:100BA000840F951FC817D90761F44E5F5F4F888186
:100BB0009981480F591F518340838A819B81938378
:100BC00082832115310509F0B0CFF093FD01E09348
:100BD000FC019ECFFD01DC01C0CF13821282D7CF72
:100BE000B0E0A0E0E6EFF5E00C9490048C010097F3
:100BF00051F4CB010E94CB048C01C801CDB7DEB704
:100C0000E0E10C94AC04FC01E60FF71F9C012250BC
:100C10003109E217F30708F49DC0D901CD91DC91A9
:100C20001197C617D70798F0C530D10530F3CE011C
:100C300004978617970708F3C61BD70B2297C19313
:100C4000D1936D937C93CF010E946705D6CF5B0152
:100C5000AC1ABD0A4C018C0E9D1EA091FC01B091F6
:100C6000FD01512C412CF12CE12C109731F5809194
:100C7000FA019091FB018815990509F05CC04616B0
:100C8000570608F058C0809100019091010100972B
:100C900041F48DB79EB74091040150910501841B2A
:100CA000950BE817F90708F055C0F093FB01E093A6
:100CB000FA01F90171836083A0CF8D919C91119706
:100CC00012966C90129713967C901397A815B905FD
:100CD00059F56C0142E0C40ED11CCA14DB0420F1AA
:100CE000AC014A195B09DA011296159780F062820D
:100CF000738251834083D9016D937C93E114F10495
:100D000071F0D7011396FC93EE93129776CF22964B
:100D10008C0F9D1FF90191838083F301EFCFF09336
:100D2000FD01E093FC0169CF4816590608F42C0137
:100D30007D01D3019ACFCB010E94CB047C010097A7
:100D400049F0AE01B8010E94AD06C8010E946705D6
:100D5000870153CF10E000E050CFFB01DC0102C05F
:100D600001900D9241505040D8F70895FB01DC01ED
:0E0D700001900D920020E1F70895F894FFCF56
:100D7E000000FE018000000000003F015F008C00BB
:100D8E008C01FD009B00EF000D0A00496E67726535
:100D9E00736120756E206E756D65726F00496E679A
:100DAE0072657361206F74726F206E756D65726FF0
:0E0DBE00004C612073756D612065733A000072
:00000001FF
