:100000000C9435000C945D000C945D000C945D0024
:100010000C945D000C945D000C945D000C945D00EC
:100020000C945D000C945D000C945D000C945D00DC
:100030000C945D000C945D000C945D000C945D00CC
:100040000C94FA020C945D000C94C8020C94A20269
:100050000C945D000C945D000C945D000C945D00AC
:100060000C945D000C945D00570411241FBECFEF6B
:10007000D8E0DEBFCDBF21E0ACE1B1E001C01D9210
:10008000A83CB207E1F711E0A0E0B1E0E6E2FEE053
:1000900002C005900D92AC31B107D9F710E0C5E36D
:1000A000D0E004C02197FE010E941905C433D10796
:1000B000C9F70E9444030C9411070C940000AF92FE
:1000C000BF92CF92DF92EF92FF920F931F93CF9345
:1000D000DF936C017B018B01040F151FEB015E01A7
:1000E000AE18BF08C017D10759F06991D601ED913C
:1000F000FC910190F081E02DC6010995892B79F7DB
:10010000C501DF91CF911F910F91FF90EF90DF908C
:10011000CF90BF90AF900895FC01538D448D252F53
:1001200030E0842F90E0821B930B541710F0CF9691
:10013000089501970895FC01918D828D981761F0C3
:10014000A28DAE0FBF2FB11D5D968C91928D9F5FDA
:100150009F73928F90E008958FEF9FEF08952FB7D0
:10016000F8948091230190912401A0912501B091F0
:1001700026012FBF80932F0190933001A09331016E
:10018000B093320187E291E00E949B0097FF26C066
:100190002FB7F8948091230190912401A09125011B
:1001A000B09126012FBF40912F01509130016091F5
:1001B000310170913201841B950BA60BB70B409156
:1001C0002B0150912C0160912D0170912E0184170B
:1001D0009507A607B707B0F28FEF9FEF0895FC01D0
:1001E000918D828D981731F0828DE80FF11D858DEC
:1001F00090E008958FEF9FEF0895FC01918D228D7F
:10020000892F90E0805C9F4F821B91098F73992703
:10021000089587E291E00E94FD0021E0892B09F416
:1002200020E0822F089580E090E0892B29F00E9441
:10023000090181110C9400000895FC01A48DA80F00
:10024000B92FB11DA35ABF4F2C91848D90E0019618
:100250008F739927848FA689B7892C93A089B18938
:100260008C91837080648C93938D848D981306C0D9
:100270000288F389E02D80818F7D80830895EF923D
:10028000FF920F931F93CF93DF93EC0181E0888F50
:100290009B8D8C8D98131AC0E889F989808185FF20
:1002A00015C09FB7F894EE89FF896083E889F989C2
:1002B00080818370806480839FBF81E090E0DF91C4
:1002C000CF911F910F91FF90EF900895F62E0B8D17
:1002D00010E00F5F1F4F0F731127E02E8C8D8E11D2
:1002E0000CC00FB607FCFACFE889F989808185FF39
:1002F000F5CFCE010E941D01F1CFEB8DEC0FFD2F4C
:10030000F11DE35AFF4FF0829FB7F8940B8FEA89F3
:10031000FB8980818062CFCFCF93DF93EC01888D02
:100320008823B9F0AA89BB89E889F9898C9185FD70
:1003300003C0808186FD0DC00FB607FCF7CF8C91FE
:1003400085FFF2CF808185FFEDCFCE010E941D0198
:10035000E9CFDF91CF9108953FB7F89480911D01C7
:1003600090911E01A0911F01B091200126B5A89B7C
:1003700005C02F3F19F00196A11DB11D3FBFBA2F37
:10038000A92F982F8827BC01CD01620F711D811DF7
:10039000911D42E0660F771F881F991F4A95D1F77C
:1003A00008958F929F92AF92BF920F931F93CF9316
:1003B000DF93CDB7DEB7A1970FB6F894DEBF0FBEBF
:1003C000CDBF19A2423008F44AE08E010F5D1F4FE5
:1003D000842E912CB12CA12CA50194010E94F7042C
:1003E000E62FB901CA01EA3044F5E05DD801EE9389
:1003F0008D01232B242B252B79F790E080E010979B
:1004000069F0FD0101900020E9F73197AF014A1B27
:100410005B0BBD0187E291E00E945F00A1960FB6E1
:10042000F894DEBF0FBECDBFDF91CF911F910F912A
:10043000BF90AF909F908F900895E95CD7CF0F93B6
:100440001F93CF93DF93EC0188819981009759F036
:100450002A813B812617370730F081E0DF91CF9169
:100460001F910F9108958B016F5F7F4F0E9444068B
:10047000009759F0998388831B830A832C813D81DF
:10048000232B59F7FC011082E8CF80E0E7CFEF92F1
:10049000FF920F931F93CF93DF9300D0CDB7DEB7BA
:1004A0008C01FC0111821082138212821582148247
:1004B00070E060E00E941F02F8012081318181110B
:1004C0002FC02115310519F0C9010E94BB05F801A3
:1004D0001182108215821482138212820E94AF0050
:1004E00097FD26C089831A82F801E480F580FFEF2A
:1004F000EF1AFF0AB701C8010E941F02882371F397
:10050000F8012081318184819581BE016F5F7F4F29
:10051000820F931F0E940A07F801F582E482DECF62
:10052000158214826AE171E0C9010E940A07D6CFE0
:10053000C8010F900F90DF91CF911F910F91FF9005
:10054000EF9008951F920F920FB60F9211242F93E0
:100550003F934F935F936F937F938F939F93AF934B
:10056000BF93EF93FF9387E291E00E941D01FF91FB
:10057000EF91BF91AF919F918F917F916F915F911B
:100580004F913F912F910F900FBE0F901F90189594
:100590001F920F920FB60F9211242F938F939F9358
:1005A000EF93FF93E0913701F09138018081E09162
:1005B0003D01F0913E0182FD1BC090818091400180
:1005C0008F5F8F7320914101821741F0E0914001CC
:1005D000F0E0E95DFE4F958F80934001FF91EF9130
:1005E0009F918F912F910F900FBE0F901F90189594
:1005F0008081F4CF1F920F920FB60F9211242F9388
:100600003F938F939F93AF93BF93809123019091DA
:100610002401A0912501B091260130911C0123E015
:10062000230F2D3758F50196A11DB11D20931C01F4
:100630008093230190932401A0932501B093260178
:1006400080911D0190911E01A0911F01B091200188
:100650000196A11DB11D80931D0190931E01A093D1
:100660001F01B0932001BF91AF919F918F913F9156
:100670002F910F900FBE0F901F90189526E8230F13
:100680000296A11DB11DD2CFCF93DF9300D000D031
:1006900000D0CDB7DEB7789484B5826084BD84B5D0
:1006A000816084BD85B5826085BD85B5816085BD6D
:1006B00080916E00816080936E0010928100809125
:1006C00081008260809381008091810081608093AD
:1006D0008100809180008160809380008091B100D2
:1006E00084608093B1008091B00081608093B000FD
:1006F00080917A00846080937A0080917A00826091
:1007000080937A0080917A00816080937A00809152
:100710007A00806880937A001092C100E0913701DE
:10072000F091380182E08083E0913301F09134014F
:100730001082E0913501F09136018FEC80831092A8
:100740003F01E0913B01F0913C0186E08083E09124
:100750003901F0913A01808180618083E091390113
:10076000F0913A01808188608083E0913901F091B5
:100770003A01808180688083E0913901F0913A01EB
:1007800080818F7D808300E010E087E291E00E940D
:10079000FD00892BD1F3CE0101960E944702E9802A
:1007A000FA80812C912C5401E114F10421F0C7014D
:1007B0000E9484044B019092220180922101E11455
:1007C000F10419F0C7010E94BB0587E291E00E9485
:1007D000FD00892BD1F3CE0101960E944702E980EA
:1007E000FA8060E070E0CB01E114F10419F0C70178
:1007F0000E9484046B01C80CD91CD0922201C092C3
:100800002101E114F10419F0C7010E94BB050D2C70
:10081000000CEE08FF084AE0C701B601F7FE0DC064
:100820006DE287E291E00E943F0166277727CB01C6
:100830006C197D098E099F094AE00E94D10142E0AE
:1008400050E068E171E087E291E00E945F000E9461
:10085000AC014B015C0184E6C82ED12CE12CF12CBB
:100860000E94AC01681979098A099B09683E7340A6
:1008700081059105A8F321E0C21AD108E108F10829
:1008800088EE880E83E0981EA11CB11CC114D1040F
:10089000E104F10429F70115110509F476CF0E944E
:1008A0000901882309F471CF0E9400006ECFE7E2AE
:1008B000F1E01382128288EE93E0A0E0B0E084833E
:1008C0009583A683B7838AE091E09183808385EC4A
:1008D00090E09587848784EC90E09787868780EC0A
:1008E00090E0918B808B81EC90E0938B828B82ECFB
:1008F00090E0958B848B86EC90E0978B868B118EA5
:10090000128E138E148E08951F93FC019927882749
:10091000BC01E89411911032E9F3193010F01E3047
:10092000C8F31B3251F01D3249F4689406C00E948E
:10093000AB04610F711D811D911D119110531A306F
:10094000B0F33EF490958095709561957F4F8F4FF1
:100950009F4F1F910895592F482F372F262F660F2D
:10096000771F881F991F660F771F881F991F620FB7
:10097000731F841F951F660F771F881F991F089587
:100980002F923F924F925F926F927F928F929F929F
:10099000AF92BF92CF92DF92EF92FF920F931F938D
:1009A000CF93DF93CDB7DEB7CA1BDB0B0FB6F8943E
:1009B000DEBF0FBECDBF09942A88398848885F847E
:1009C0006E847D848C849B84AA84B984C884DF80EF
:1009D000EE80FD800C811B81AA81B981CE0FD11DD3
:1009E0000FB6F894DEBF0FBECDBFED010895A1E2B2
:1009F0001A2EAA1BBB1BFD010DC0AA1FBB1FEE1F99
:100A0000FF1FA217B307E407F50720F0A21BB30BE3
:100A1000E40BF50B661F771F881F991F1A9469F75F
:100A200060957095809590959B01AC01BD01CF01BB
:100A30000895EE0FFF1F0590F491E02D09940F9398
:100A40001F93CF93DF938230910510F482E090E002
:100A5000E091C601F091C70130E020E0B0E0A0E0F5
:100A6000309799F42115310509F44AC0281B390B38
:100A700024303105D8F58A819B816115710589F192
:100A8000FB0193838283FE0111C040815181028169
:100A9000138148175907E0F04817590799F4109740
:100AA00061F012960C93129713961C933296CF0115
:100AB000DF91CF911F910F9108950093C60110937C
:100AC000C701F4CF2115310551F04217530738F013
:100AD000A901DB019A01BD01DF01F801C1CFEF01DE
:100AE000F9CF9093C7018093C601CDCFFE01E20FED
:100AF000F31F819391932250310939832883D7CFF3
:100B00002091C4013091C501232B41F420910201B1
:100B1000309103013093C5012093C401209100015D
:100B2000309101012115310541F42DB73EB74091B7
:100B3000040150910501241B350BE091C401F09193
:100B4000C501E217F307A0F42E1B3F0B2817390746
:100B500078F0AC014E5F5F4F2417350748F04E0F19
:100B60005F1F5093C5014093C401819391939FCF20
:100B7000F0E0E0E09CCFCF93DF930097E9F0FC0139
:100B8000329713821282A091C601B091C701ED0184
:100B900030E020E01097A1F420813181820F931F73
:100BA0002091C4013091C5012817390709F061C0AF
:100BB000F093C501E093C401DF91CF910895EA015C
:100BC000CE17DF07E8F54A815B819E01411551058B
:100BD000B1F7E901FB83EA8349915991C40FD51F0D
:100BE000EC17FD0761F4808191810296840F951FB7
:100BF000E90199838883828193819B838A83F0E0D2
:100C0000E0E012968D919C9113970097B9F52D9184
:100C10003C911197CD010296820F931F2091C40140
:100C20003091C5012817390739F6309751F51092E0
:100C3000C7011092C601B093C501A093C401BCCFF7
:100C4000D383C28340815181840F951FC817D90770
:100C500061F44E5F5F4F88819981480F591F51831E
:100C600040838A819B81938382832115310509F01A
:100C7000B0CFF093C701E093C6019ECFFD01DC0128
:100C8000C0CF13821282D7CFB0E0A0E0EAE4F6E052
:100C90000C94C2048C01009751F4CB010E941F05F3
:100CA0008C01C801CDB7DEB7E0E10C94DE04FC0195
:100CB000E60FF71F9C0122503109E217F30708F4F1
:100CC0009DC0D901CD91DC911197C617D70798F037
:100CD000C530D10530F3CE0104978617970708F386
:100CE000C61BD70B2297C193D1936D937C93CF01F1
:100CF0000E94BB05D6CF5B01AC1ABD0A4C018C0E1D
:100D00009D1EA091C601B091C701512C412CF12C20
:100D1000E12C109731F58091C4019091C50188159F
:100D2000990509F05CC04616570608F058C0809136
:100D3000000190910101009741F48DB79EB7409159
:100D4000040150910501841B950BE817F90708F081
:100D500055C0F093C501E093C401F901718360832C
:100D6000A0CF8D919C91119712966C90129713962B
:100D70007C901397A815B90559F56C0142E0C40E93
:100D8000D11CCA14DB0420F1AC014A195B09DA0159
:100D90001296159780F06282738251834083D90145
:100DA0006D937C93E114F10471F0D7011396FC93D9
:100DB000EE93129776CF22968C0F9D1FF9019183A7
:100DC0008083F301EFCFF093C701E093C60169CFB1
:100DD0004816590608F42C017D01D3019ACFCB01A6
:100DE0000E941F057C01009749F0AE01B8010E94E6
:100DF0000107C8010E94BB05870153CF10E000E046
:100E000050CFFB01DC0102C001900D9241505040D7
:100E1000D8F70895FB01DC0101900D920020E1F765
:060E20000895F894FFCFD5
:100E26000000C8018000000000003F015F008C0048
:0C0E36008C01FD009B00EF000D0A000085
:00000001FF
