:100000000C9453000C947B000C947B000C947B00AC
:100010000C947B000C947B000C947B000C947B0074
:100020000C947B000C947B000C947B000C947B0064
:100030000C947B000C947B000C947B000C947B0054
:100040000C946F020C947B000C943D020C941702EC
:100050000C947B000C947B000C947B000C947B0034
:100060000C947B000C947B004E414E494E495459F0
:10007000494E46CDCCCC3D0AD7233C17B7D1387773
:10008000CC2B329595E6241FB14F0A000020410089
:1000900000C84200401C4620BCBE4CCA1B0E5AAED3
:1000A000C59D7400280411241FBECFEFD8E0DEBF29
:1000B000CDBF21E0ACE1B1E001C01D92AA3CB20786
:1000C000E1F711E0A0E0B1E0E8E2F3E102C0059061
:1000D0000D92AC31B107D9F710E0C3E5D0E004C010
:1000E0002197FE010E949A07C235D107C9F70E94E5
:1000F000B9020C9492090C940000AF92BF92CF9277
:10010000DF92EF92FF920F931F93CF93DF936C01D7
:100110007B018B01040F151FEB015E01AE18BF08B8
:10012000C017D10759F06991D601ED91FC9101906A
:10013000F081E02DC6010995892B79F7C501DF9182
:10014000CF911F910F91FF90EF90DF90CF90BF90D4
:10015000AF900895FC01538D448D252F30E0842FFE
:1001600090E0821B930B541710F0CF9608950197DF
:100170000895FC01918D828D981761F0A28DAE0FCC
:10018000BF2FB11D5D968C91928D9F5F9F73928F53
:1001900090E008958FEF9FEF08952FB7F894809126
:1001A000230190912401A0912501B09126012FBF38
:1001B00080932F0190933001A0933101B0933201CD
:1001C00087E291E00E94B90097FF26C02FB7F8940C
:1001D0008091230190912401A0912501B0912601E5
:1001E0002FBF40912F0150913001609131017091EA
:1001F0003201841B950BA60BB70B40912B0150913C
:100200002C0160912D0170912E0184179507A6078E
:10021000B707B0F28FEF9FEF0895FC01918D828DAB
:10022000981731F0828DE80FF11D858D90E00895CB
:100230008FEF9FEF0895FC01918D228D892F90E023
:10024000805C9F4F821B91098F739927089587E2E5
:1002500091E00E941B0121E0892B09F420E0822F0C
:10026000089580E090E0892B29F00E9427018111F8
:100270000C9400000895FC01A48DA80FB92FB11DA6
:10028000A35ABF4F2C91848D90E001968F739927CC
:10029000848FA689B7892C93A089B1898C918370AA
:1002A00080648C93938D848D981306C00288F389A3
:1002B000E02D80818F7D80830895EF92FF920F93D0
:1002C0001F93CF93DF93EC0181E0888F9B8D8C8D02
:1002D00098131AC0E889F989808185FF15C09FB7F6
:1002E000F894EE89FF896083E889F98980818370B9
:1002F000806480839FBF81E090E0DF91CF911F9168
:100300000F91FF90EF900895F62E0B8D10E00F5F88
:100310001F4F0F731127E02E8C8D8E110CC00FB65E
:1003200007FCFACFE889F989808185FFF5CFCE01F6
:100330000E943B01F1CFEB8DEC0FFD2FF11DE35A35
:10034000FF4FF0829FB7F8940B8FEA89FB89808179
:100350008062CFCFCF93DF93EC01888D8823B9F0F3
:10036000AA89BB89E889F9898C9185FD03C08081C0
:1003700086FD0DC00FB607FCF7CF8C9185FFF2CF3D
:10038000808185FFEDCFCE010E943B01E9CFDF9157
:10039000CF9108953FB7F89480911D0190911E016F
:1003A000A0911F01B091200126B5A89B05C02F3F49
:1003B00019F00196A11DB11D3FBFBA2FA92F982F8B
:1003C0008827BC01CD01620F711D811D911D42E086
:1003D000660F771F881F991F4A95D1F708950F93CD
:1003E0001F93CF93DF93EC0188819981009759F097
:1003F0002A813B812617370730F081E0DF91CF91CA
:100400001F910F9108958B016F5F7F4F0E94C50868
:10041000009759F0998388831B830A832C813D813F
:10042000232B59F7FC011082E8CF80E0E7CF1F9221
:100430000F920FB60F9211242F933F934F935F9318
:100440006F937F938F939F93AF93BF93EF93FF939C
:1004500087E291E00E943B01FF91EF91BF91AF9144
:100460009F918F917F916F915F914F913F912F91CC
:100470000F900FBE0F901F9018951F920F920FB6FE
:100480000F9211242F938F939F93EF93FF93E091FB
:100490003701F09138018081E0913D01F0913E01FA
:1004A00082FD1BC09081809140018F5F8F732091EE
:1004B0004101821741F0E0914001F0E0E95DFE4F1B
:1004C000958F80934001FF91EF919F918F912F9194
:1004D0000F900FBE0F901F9018958081F4CF1F9240
:1004E0000F920FB60F9211242F933F938F939F93E8
:1004F000AF93BF938091230190912401A091250196
:10050000B091260130911C0123E0230F2D3758F5BF
:100510000196A11DB11D20931C018093230190938E
:100520002401A0932501B093260180911D01909193
:100530001E01A0911F01B09120010196A11DB11DC6
:1005400080931D0190931E01A0931F01B093200181
:10055000BF91AF919F918F913F912F910F900FBEBF
:100560000F901F90189526E8230F0296A11DB11D2C
:10057000D2CFCF93DF93CDB7DEB7A3970FB6F89462
:10058000DEBF0FBECDBF789484B5826084BD84B5D4
:10059000816084BD85B5826085BD85B5816085BD7E
:1005A00080916E00816080936E0010928100809136
:1005B00081008260809381008091810081608093BE
:1005C0008100809180008160809380008091B100E3
:1005D00084608093B1008091B00081608093B0000E
:1005E00080917A00846080937A0080917A008260A2
:1005F00080937A0080917A00816080937A00809164
:100600007A00806880937A001092C100E0913701EF
:10061000F091380182E08083E0913301F091340160
:100620001082E0913501F09136018FEC80831092B9
:100630003F01E0913B01F0913C0186E08083E09135
:100640003901F0913A01808180618083E091390124
:10065000F0913A01808188608083E0913901F091C6
:100660003A01808180688083E0913901F0913A01FC
:1006700080818F7D80839AE0892E912CA12CB12CD2
:1006800000E010E087E291E00E941B0118161906B5
:100690000CF094C01A8219821C821B821E821D8259
:1006A00070E060E0CE0101960E94EF0129813A815D
:1006B00081112CC02115310519F0C9010E943C0897
:1006C0001A8219821E821D821C821B820E94CD000A
:1006D00097FD24C08AA31BA2ED80FE802FEFE21AB3
:1006E000F20AB701CE0101960E94EF01882371F34F
:1006F00029813A818D819E81BE016E5D7F4F820F7F
:10070000931F0E948B09FE82ED82E0CF1E821D8224
:100710006AE171E0C9010E948B09D8CF89819A8171
:10072000009709F47BC00E9455040E9442076B01A8
:10073000709322016093210189819A81009711F0C1
:100740000E943C080D2C000CEE08FF08F7FE6AC062
:100750006DE287E291E00E945D0122273327A90123
:100760002C193D094E095F0919A2CE0181967C0121
:10077000CA01B901A50194010E947807605DF701E3
:1007800062937F01211531054105510589F7E11477
:10079000F10461F001900020E9F73197AF014E19A3
:1007A0005F09B70187E291E00E947D0042E050E0DE
:1007B00068E171E087E291E00E947D000E94CA0139
:1007C0002B013C0184E6C82ED12CE12CF12C0E9497
:1007D000CA016419750986099709683E7340810545
:1007E0009105A8F3F1E0CF1AD108E108F10828EE4D
:1007F000420E23E0521E611C711CC114D104E1049D
:10080000F10429F70115110509F43CCF0E942701D5
:10081000882309F437CF0E94000034CF60E070E0F5
:10082000CB0183CFA701960119A2CE0181967C014D
:10083000CA01B901A50194010E947807605DF70122
:1008400062937F01211531054105510589F79FCF3D
:10085000E7E2F1E01382128288EE93E0A0E0B0E0DC
:1008600084839583A683B7838AE091E09183808314
:1008700085EC90E09587848784EC90E09787868765
:1008800080EC90E0918B808B81EC90E0938B828B5D
:1008900082EC90E0958B848B86EC90E0978B868B36
:1008A000118E128E138E148E0895662777270C945E
:1008B0005904B0E0A0E0EFE5F4E00C9402075C011D
:1008C0007B016115710519F0DB018D939C93850106
:1008D0000F5F1F4FF501D0818D2F90E00E94A90579
:1008E0006C01892BB9F5DD32B9F50F5F1F4FD501CA
:1008F0001196DC91C1E05801F1E0AF1AB10843E074
:1009000050E060E770E0C5010E94B205892B69F5EF
:10091000680182E0C80ED11C45E050E06BE670E053
:10092000C6010E94B205892B21F4680197E0C90E27
:10093000D11CE114F10419F0D701CD92DC9260E0F2
:1009400070E080E89FEFC111FFC060E070E080E8D8
:100950009FE7FAC05801BBCFDB3229F485010E5F57
:100960001F4FF501D181C0E0C6CF43E050E068E6FB
:1009700070E0C5010E94B205892BE9F0F80110E092
:1009800000E020E030E0A9015F01B0ED8B2E8D0E7C
:1009900089E08815C8F19C2E689491F88C2F887096
:1009A000C2FF16C0811102C00F5F1F4F3196D501E3
:1009B000DC91C92DE9CFE114F10429F00E5F1F4F3E
:1009C000F7011183008360E070E080EC9FE7BCC01A
:1009D000882311F001501109A5E0B0E00E94F10652
:1009E0009B01AC01220F331F441F551F280D311DE1
:1009F000411D511D283999E93907490799E15907DE
:100A0000A8F2C6609C2ED2CFAEEF8A1206C0C3FDFC
:100A10003CC09C2E689493F8C9CFDF7DD534A9F5EE
:100A200080818D3239F4C061DF011296818162E0EC
:100A300070E006C0DF018B32C1F3119661E070E017
:100A400080535D01A61AB70A8A30F8F4E0E8CE16A2
:100A5000ECE0DE065CF4B601660F771F660F771FC9
:100A6000C60ED71ECC0CDD1CC80ED11C5D01FFEFDD
:100A7000AF1ABF0A8C9180538A30A8F1C4FF03C01B
:100A8000D194C194D1080C0D1D1DC1FF09C0E11402
:100A9000F10431F081E0A81AB108D701AD92BC92FF
:100AA000CA01B9010E94CF05C370C33009F4905840
:100AB0004B015C0120E030E0A9010E94CA058823B7
:100AC00009F440C0CFE9D0E017FF05C011950195AA
:100AD0001109C7E8D0E06E01B8E1CB1AD10880E275
:100AE000E82EF12C0FC0D501B1CFFE012591359133
:100AF000459154910E191F09C501B4010E94300699
:100B00004B015C01D501C4010E151F0574F7249734
:100B1000F594E794CC16DD06A9F78A2F880F8B2F62
:100B2000881F8F3F49F020E030E0A901C501B401E2
:100B30000E94CA05811106C082E290E09093C5012F
:100B40008093C401C501B401CDB7DEB7ECE00C94CD
:100B50001E0791110C949D06803219F08950855022
:100B6000C8F70895FB01DC014150504088F08D9199
:100B700081341CF08B350CF4805E659161341CF07F
:100B80006B350CF4605E861B611171F3990B08954F
:100B9000881BFCCF0E940C0608F481E00895E894BD
:100BA00009C097FB3EF490958095709561957F4FB5
:100BB0008F4F9F4F9923A9F0F92F96E9BB27939563
:100BC000F695879577956795B795F111F8CFFAF473
:100BD000BB0F11F460FF1BC06F5F7F4F8F4F9F4FA4
:100BE00016C0882311F096E911C0772321F09EE802
:100BF000872F762F05C0662371F096E8862F70E068
:100C000060E02AF09A95660F771F881FDAF7880F41
:100C10009695879597F90895990F0008550FAA0B97
:100C2000E0E8FEEF16161706E807F907C0F01216FF
:100C30001306E407F50798F0621B730B840B950B02
:100C400039F40A2661F0232B242B252B21F4089557
:100C50000A2609F4A140A6958FEF811D811D0895F4
:100C60000E9443060C94B7060E94A90638F00E9421
:100C7000B00620F0952311F00C94A0060C94A60663
:100C800011240C94EB060E94C80670F3959FC1F3E3
:100C9000950F50E0551F629FF001729FBB27F00D2A
:100CA000B11D639FAA27F00DB11DAA1F649F66277F
:100CB000B00DA11D661F829F2227B00DA11D621FCE
:100CC000739FB00DA11D621F839FA00D611D221F88
:100CD000749F3327A00D611D231F849F600D211D6C
:100CE000822F762F6A2F11249F5750409AF0F1F0EF
:100CF00088234AF0EE0FFF1FBB1F661F771F881F58
:100D000091505040A9F79E3F510580F00C94A006E9
:100D10000C94EB065F3FE4F3983ED4F38695779509
:100D20006795B795F795E7959F5FC1F7FE2B880FFD
:100D3000911D9695879597F9089599278827089585
:100D400097F99F6780E870E060E008959FEF80EC7E
:100D5000089500240A941616170618060906089521
:100D600000240A9412161306140605060895092E87
:100D70000394000C11F4882352F0BB0F40F4BF2BF6
:100D800011F460FF04C06F5F7F4F8F4F9F4F089536
:100D900057FD9058440F551F59F05F3F71F047952C
:100DA000880F97FB991F61F09F3F79F08795089511
:100DB000121613061406551FF2CF4695F1DF08C030
:100DC000161617061806991FF1CF8695710561054D
:100DD00008940895E894BB2766277727CB0197F9F5
:100DE00008950E943307A59F900DB49F900DA49F76
:100DF000800D911D112408952F923F924F925F9282
:100E00006F927F928F929F92AF92BF92CF92DF921A
:100E1000EF92FF920F931F93CF93DF93CDB7DEB77F
:100E2000CA1BDB0B0FB6F894DEBF0FBECDBF099413
:100E30002A88398848885F846E847D848C849B846A
:100E4000AA84B984C884DF80EE80FD800C811B8178
:100E5000AA81B981CE0FD11D0FB6F894DEBF0FBEA7
:100E6000CDBFED010895A29FB001B39FC001A39F24
:100E7000700D811D1124911DB29F700D811D1124D3
:100E8000911D08950E9449076894B1110C94EB06D6
:100E900008950E94D00688F09F5798F0B92F99279F
:100EA000B751B0F0E1F0660F771F881F991F1AF055
:100EB000BA95C9F714C0B13091F00E94EA06B1E0CA
:100EC00008950C94EA06672F782F8827B85F39F0C9
:100ED000B93FCCF3869577956795B395D9F73EF4EE
:100EE00090958095709561957F4F8F4F9F4F089596
:100EF000A1E21A2EAA1BBB1BFD010DC0AA1FBB1F1E
:100F0000EE1FFF1FA217B307E407F50720F0A21B8F
:100F1000B30BE40BF50B661F771F881F991F1A94FC
:100F200069F760957095809590959B01AC01BD0126
:100F3000CF010895EE0FFF1F0590F491E02D099465
:100F40000F931F93CF93DF938230910510F482E0CB
:100F500090E0E091C801F091C90130E020E0B0E0FC
:100F6000A0E0309799F42115310509F44AC0281BF7
:100F7000390B24303105D8F58A819B8161157105C3
:100F800089F1FB0193838283FE0111C0408151816D
:100F90000281138148175907E0F04817590799F45F
:100FA000109761F012960C93129713961C93329639
:100FB000CF01DF91CF911F910F9108950093C80148
:100FC0001093C901F4CF2115310551F04217530791
:100FD00038F0A901DB019A01BD01DF01F801C1CFA1
:100FE000EF01F9CF9093C9018093C801CDCFFE01E5
:100FF000E20FF31F819391932250310939832883A3
:10100000D7CF2091C6013091C701232B41F4209105
:101010000201309103013093C7012093C601209152
:101020000001309101012115310541F42DB73EB782
:101030004091040150910501241B350BE091C6013C
:10104000F091C701E217F307A0F42E1B3F0B2817FE
:10105000390778F0AC014E5F5F4F2417350748F031
:101060004E0F5F1F5093C7014093C6018193919328
:101070009FCFF0E0E0E09CCFCF93DF930097E9F0C3
:10108000FC01329713821282A091C801B091C9016C
:10109000ED0130E020E01097A1F420813181820F32
:1010A000931F2091C6013091C7012817390709F015
:1010B00061C0F093C701E093C601DF91CF9108951D
:1010C000EA01CE17DF07E8F54A815B819E014115F1
:1010D0005105B1F7E901FB83EA8349915991C40FA6
:1010E000D51FEC17FD0761F4808191810296840F72
:1010F000951FE90199838883828193819B838A83E9
:10110000F0E0E0E012968D919C9113970097B9F56D
:101110002D913C911197CD010296820F931F209142
:10112000C6013091C7012817390739F6309751F5B4
:101130001092C9011092C801B093C701A093C601D3
:10114000BCCFD383C28340815181840F951FC817C0
:10115000D90761F44E5F5F4F88819981480F591F0D
:10116000518340838A819B8193838283211531053A
:1011700009F0B0CFF093C901E093C8019ECFFD0103
:10118000DC01C0CF13821282D7CFB0E0A0E0EBEC3D
:10119000F8E00C94FE068C01009751F4CB010E94FC
:1011A000A0078C01C801CDB7DEB7E0E10C941A07A7
:1011B000FC01E60FF71F9C0122503109E217F307EB
:1011C00008F49DC0D901CD91DC911197C617D707BE
:1011D00098F0C530D10530F3CE01049786179707F4
:1011E00008F3C61BD70B2297C193D1936D937C93C1
:1011F000CF010E943C08D6CF5B01AC1ABD0A4C015E
:101200008C0E9D1EA091C801B091C901512C412C9A
:10121000F12CE12C109731F58091C6019091C70116
:101220008815990509F05CC04616570608F058C0A5
:101230008091000190910101009741F48DB79EB714
:101240004091040150910501841B950BE817F907A3
:1012500008F055C0F093C701E093C601F90171830E
:101260006083A0CF8D919C91119712966C901297EC
:1012700013967C901397A815B90559F56C0142E0B7
:10128000C40ED11CCA14DB0420F1AC014A195B095D
:10129000DA011296159780F062827382518340833F
:1012A000D9016D937C93E114F10471F0D701139689
:1012B000FC93EE93129776CF22968C0F9D1FF90127
:1012C00091838083F301EFCFF093C901E093C801CC
:1012D00069CF4816590608F42C017D01D3019ACF35
:1012E000CB010E94A0077C01009749F0AE01B80134
:1012F0000E948209C8010E943C08870153CF10E078
:1013000000E050CFFB01DC0102C001900D92415082
:101310005040D8F70895FB01DC0101900D920020A8
:08132000E1F70895F894FFCFF6
:101328000000CA018000000000005D017D00AA00E5
:0C133800AA011B01B9000D010D0A000004
:00000001FF
