:100000000C9435000C945D000C945D000C945D0024
:100010000C945D000C945D000C945D000C945D00EC
:100020000C945D000C945D000C945D000C945D00DC
:100030000C945D000C945D000C945D000C945D00CC
:100040000C949F020C945D000C946D020C9447027A
:100050000C945D000C945D000C945D000C945D00AC
:100060000C945D000C945D003E0411241FBECFEF84
:10007000D8E0DEBFCDBF21E0ACE1B1E001C01D9210
:10008000AB3CB207E1F711E0A0E0B1E0E4EFFDE046
:1000900002C005900D92AC31B107D9F710E0C5E36D
:1000A000D0E004C02197FE010E940005C433D107AF
:1000B000C9F70E94E9020C94F8060C940000AF9274
:1000C000BF92CF92DF92EF92FF920F931F93CF9345
:1000D000DF936C017B018B01040F151FEB015E01A7
:1000E000AE18BF08C017D10759F06991D601ED913C
:1000F000FC910190F081E02DC6010995892B79F7DB
:10010000C501DF91CF911F910F91FF90EF90DF908C
:10011000CF90BF90AF900895FC01538D448D252F53
:1001200030E0842F90E0821B930B541710F0CF9691
:10013000089501970895FC01918D828D981761F0C3
:10014000A28DAE0FBF2FB11D5D968C91928D9F5FDA
:100150009F73928F90E008958FEF9FEF08952FB7D0
:10016000F8948091260190912701A0912801B091E7
:1001700029012FBF8093320190933301A093340162
:10018000B09335018AE291E00E949B0097FF26C060
:100190002FB7F8948091260190912701A091280112
:1001A000B09129012FBF40913201509133016091EC
:1001B000340170913501841B950BA60BB70B409150
:1001C0002E0150912F0160913001709131018417FF
:1001D0009507A607B707B0F28FEF9FEF0895FC01D0
:1001E000918D828D981731F0828DE80FF11D858DEC
:1001F00090E008958FEF9FEF0895FC01918D228D7F
:10020000892F90E0805C9F4F821B91098F73992703
:1002100008958AE291E00E94FD0021E0892B09F413
:1002200020E0822F089580E090E0892B29F00E9441
:10023000090181110C9400000895FC01A48DA80F00
:10024000B92FB11DA35ABF4F2C91848D90E0019618
:100250008F739927848FA689B7892C93A089B18938
:100260008C91837080648C93938D848D981306C0D9
:100270000288F389E02D80818F7D80830895EF923D
:10028000FF920F931F93CF93DF93EC0181E0888F50
:100290009B8D8C8D98131AC0E889F989808185FF20
:1002A00015C09FB7F894EE89FF896083E889F989C2
:1002B00080818370806480839FBF81E090E0DF91C4
:1002C000CF911F910F91FF90EF900895F62E0B8D17
:1002D00010E00F5F1F4F0F731127E02E8C8D8E11D2
:1002E0000CC00FB607FCFACFE889F989808185FF39
:1002F000F5CFCE010E941D01F1CFEB8DEC0FFD2F4C
:10030000F11DE35AFF4FF0829FB7F8940B8FEA89F3
:10031000FB8980818062CFCFCF93DF93EC01888D02
:100320008823B9F0AA89BB89E889F9898C9185FD70
:1003300003C0808186FD0DC00FB607FCF7CF8C91FE
:1003400085FFF2CF808185FFEDCFCE010E941D0198
:10035000E9CFDF91CF9108953FB7F89480911D01C7
:1003600090911E01A0911F01B091200126B5A89B7C
:1003700005C02F3F19F00196A11DB11D3FBFBA2F37
:10038000A92F982F8827BC01CD01620F711D811DF7
:10039000911D42E0660F771F881F991F4A95D1F77C
:1003A00008958F929F92AF92BF920F931F93CF9316
:1003B000DF93CDB7DEB7A1970FB6F894DEBF0FBEBF
:1003C000CDBF19A2423008F44AE08E010F5D1F4FE5
:1003D000842E912CB12CA12CA50194010E94DE0445
:1003E000E62FB901CA01EA3044F5E05DD801EE9389
:1003F0008D01232B242B252B79F790E080E010979B
:1004000069F0FD0101900020E9F73197AF014A1B27
:100410005B0BBD018AE291E00E945F00A1960FB6DE
:10042000F894DEBF0FBECDBFDF91CF911F910F912A
:10043000BF90AF909F908F900895E95CD7CF0F93B6
:100440001F93CF93DF93EC0188819981009759F036
:100450002A813B812617370730F081E0DF91CF9169
:100460001F910F9108958B016F5F7F4F0E942B06A4
:10047000009759F0998388831B830A832C813D81DF
:10048000232B59F7FC011082E8CF80E0E7CF1F92C1
:100490000F920FB60F9211242F933F934F935F93B8
:1004A0006F937F938F939F93AF93BF93EF93FF933C
:1004B0008AE291E00E941D01FF91EF91BF91AF91FF
:1004C0009F918F917F916F915F914F913F912F916C
:1004D0000F900FBE0F901F9018951F920F920FB69E
:1004E0000F9211242F938F939F93EF93FF93E0919B
:1004F0003A01F0913B018081E0914001F09141018E
:1005000082FD1BC09081809143018F5F8F7320918A
:100510004401821741F0E0914301F0E0E65DFE4FB7
:10052000958F80934301FF91EF919F918F912F9130
:100530000F900FBE0F901F9018958081F4CF1F92DF
:100540000F920FB60F9211242F933F938F939F9387
:10055000AF93BF938091260190912701A09128012C
:10056000B091290130911C0123E0230F2D3758F55C
:100570000196A11DB11D20931C018093260190932B
:100580002701A0932801B093290180911D0190912A
:100590001E01A0911F01B09120010196A11DB11D66
:1005A00080931D0190931E01A0931F01B093200121
:1005B000BF91AF919F918F913F912F910F900FBE5F
:1005C0000F901F90189526E8230F0296A11DB11DCC
:1005D000D2CFCF93DF93CDB7DEB728970FB6F8947D
:1005E000DEBF0FBECDBF789484B5826084BD84B574
:1005F000816084BD85B5826085BD85B5816085BD1E
:1006000080916E00816080936E00109281008091D5
:10061000810082608093810080918100816080935D
:100620008100809180008160809380008091B10082
:1006300084608093B1008091B00081608093B000AD
:1006400080917A00846080937A0080917A00826041
:1006500080937A0080917A00816080937A00809103
:100660007A00806880937A001092C100E0913A018C
:10067000F0913B0182E08083E0913601F0913701F7
:100680001082E0913801F09139018FEC8083109253
:100690004201E0913E01F0913F0186E08083E091CC
:1006A0003C01F0913D01808180618083E0913C01BB
:1006B000F0913D01808188608083E0913C01F09160
:1006C0003D01808180688083E0913C01F0913D0193
:1006D00080818F7D808310922301109222011092DD
:1006E000210100E010E0BB24B3948AE291E00E9473
:1006F000FD00181619060CF064C01A8219821C82BB
:100700001B821E821D8270E060E0CE0101960E9475
:100710001F0229813A8181112CC02115310519F060
:10072000C9010E94A2051A8219821E821D821C82A2
:100730001B820E94AF0097FD24C08F831886ED8036
:10074000FE802FEFE21AF20AB701CE0101960E9455
:100750001F02882371F329813A818D819E81BE0118
:10076000695F7F4F820F931F0E94F106FE82ED8228
:10077000E0CF1E821D826AE171E0C9010E94F1068C
:10078000D8CFE980FA8060E070E0CB01E114F10499
:1007900019F0C7010E946B046B01709325016093EF
:1007A0002401E114F10419F0C7010E94A20580910F
:1007B0002301811136C0D0922201C0922101B09252
:1007C00023010E94AC012B013C0184E6C82ED12CF0
:1007D000E12CF12C0E94AC01641975098609970976
:1007E000683E734081059105A8F381E0C81AD108DD
:1007F000E108F10828EE420E23E0521E611C711C34
:10080000C114D104E104F10429F70115110509F41B
:100810006CCF0E940901882309F467CF0E94000071
:1008200064CF6091210170912201C60ED71ED09233
:100830002201C0922101109223010D2C000CEE0820
:10084000FF084AE0C701B601F7FE0DC06DE28AE27B
:1008500091E00E943F0166277727CB016C197D0943
:100860008E099F094AE00E94D10142E050E068E110
:1008700071E08AE291E00E945F00A3CFEAE2F1E03A
:100880001382128288EE93E0A0E0B0E08483958327
:10089000A683B7838AE091E09183808385EC90E022
:1008A0009587848784EC90E09787868780EC90E03A
:1008B000918B808B81EC90E0938B828B82EC90E02B
:1008C000958B848B86EC90E0978B868B118E128EA5
:1008D000138E148E08951F93FC0199278827BC015D
:1008E000E89411911032E9F3193010F01E30C8F37A
:1008F0001B3251F01D3249F4689406C00E949204E4
:10090000610F711D811D911D119110531A30B0F3AB
:100910003EF490958095709561957F4F8F4F9F4FD6
:100920001F910895592F482F372F262F660F771FB5
:10093000881F991F660F771F881F991F620F731FEB
:10094000841F951F660F771F881F991F08952F9288
:100950003F924F925F926F927F928F929F92AF924F
:10096000BF92CF92DF92EF92FF920F931F93CF939C
:10097000DF93CDB7DEB7CA1BDB0B0FB6F894DEBF33
:100980000FBECDBF09942A88398848885F846E8459
:100990007D848C849B84AA84B984C884DF80EE80A3
:1009A000FD800C811B81AA81B981CE0FD11D0FB6AC
:1009B000F894DEBF0FBECDBFED010895A1E21A2E5F
:1009C000AA1BBB1BFD010DC0AA1FBB1FEE1FFF1FF3
:1009D000A217B307E407F50720F0A21BB30BE40B43
:1009E000F50B661F771F881F991F1A9469F760958A
:1009F0007095809590959B01AC01BD01CF01089544
:100A0000EE0FFF1F0590F491E02D09940F931F93B3
:100A1000CF93DF938230910510F482E090E0E09173
:100A2000C901F091CA0130E020E0B0E0A0E03097C9
:100A300099F42115310509F44AC0281B390B2430DB
:100A40003105D8F58A819B816115710589F1FB011A
:100A500093838283FE0111C0408151810281138101
:100A600048175907E0F04817590799F4109761F0B3
:100A700012960C93129713961C933296CF01DF9126
:100A8000CF911F910F9108950093C9011093CA014E
:100A9000F4CF2115310551F04217530738F0A90161
:100AA000DB019A01BD01DF01F801C1CFEF01F9CFF0
:100AB0009093CA018093C901CDCFFE01E20FF31FCD
:100AC000819391932250310939832883D7CF209184
:100AD000C7013091C801232B41F4209102013091CC
:100AE00003013093C8012093C70120910001309188
:100AF00001012115310541F42DB73EB740910401A4
:100B000050910501241B350BE091C701F091C801FC
:100B1000E217F307A0F42E1B3F0B2817390778F0D4
:100B2000AC014E5F5F4F2417350748F04E0F5F1F33
:100B30005093C8014093C701819391939FCFF0E0F8
:100B4000E0E09CCFCF93DF930097E9F0FC01329770
:100B500013821282A091C901B091CA01ED0130E067
:100B600020E01097A1F420813181820F931F209102
:100B7000C7013091C8012817390709F061C0F09307
:100B8000C801E093C701DF91CF910895EA01CE1724
:100B9000DF07E8F54A815B819E0141155105B1F7F8
:100BA000E901FB83EA8349915991C40FD51FEC17E2
:100BB000FD0761F4808191810296840F951FE90100
:100BC00099838883828193819B838A83F0E0E0E02C
:100BD00012968D919C9113970097B9F52D913C91A8
:100BE0001197CD010296820F931F2091C70130917A
:100BF000C8012817390739F6309751F51092CA0104
:100C00001092C901B093C801A093C701BCCFD38390
:100C1000C28340815181840F951FC817D90761F4A1
:100C20004E5F5F4F88819981480F591F51834083E0
:100C30008A819B81938382832115310509F0B0CF8E
:100C4000F093CA01E093C9019ECFFD01DC01C0CF42
:100C500013821282D7CFB0E0A0E0E1E3F6E00C947B
:100C6000A9048C01009751F4CB010E9406058C0168
:100C7000C801CDB7DEB7E0E10C94C504FC01E60F76
:100C8000F71F9C0122503109E217F30708F49DC0B9
:100C9000D901CD91DC911197C617D70798F0C530CF
:100CA000D10530F3CE0104978617970708F3C61BCA
:100CB000D70B2297C193D1936D937C93CF010E9460
:100CC000A205D6CF5B01AC1ABD0A4C018C0E9D1E4D
:100CD000A091C901B091CA01512C412CF12CE12CF9
:100CE000109731F58091C7019091C8018815990539
:100CF00009F05CC04616570608F058C08091000104
:100D000090910101009741F48DB79EB74091040185
:100D100050910501841B950BE817F90708F055C0A1
:100D2000F093C801E093C701F90171836083A0CFFC
:100D30008D919C91119712966C90129713967C90BE
:100D40001397A815B90559F56C0142E0C40ED11CE2
:100D5000CA14DB0420F1AC014A195B09DA011296CE
:100D6000159780F06282738251834083D9016D931D
:100D70007C93E114F10471F0D7011396FC93EE9388
:100D8000129776CF22968C0F9D1FF9019183808355
:100D9000F301EFCFF093CA01E093C90169CF481680
:100DA000590608F42C017D01D3019ACFCB010E9492
:100DB00006057C01009749F0AE01B8010E94E806E3
:100DC000C8010E94A205870153CF10E000E050CF78
:100DD000FB01DC0102C001900D9241505040D8F758
:100DE0000895FB01DC0101900D920020E1F70895C8
:040DF000F894FFCFA5
:100DF4000000CB018000000000003F015F008C0078
:0C0E04008C01FD009B00EF000D0A0000B7
:00000001FF
