:100000000C945C000C9479000C9479000C947900A9
:100010000C9479000C9479000C9479000C9479007C
:100020000C9479000C9479000C9479000C9479006C
:100030000C9479000C9479000C9479000C9479005C
:100040000C940B010C9479000C9479000C947900B9
:100050000C9479000C9479000C9479000C9479003C
:100060000C9479000C947900000000080002010053
:100070000003040700000000000000000000000072
:10008000250028002B0000000000240027002A0083
:10009000040404040404040402020202020203032E
:1000A0000303030301020408102040800102040836
:1000B000102001020408102011241FBECFEFD8E049
:1000C000DEBFCDBF11E0A0E0B1E0E8E5F6E002C0A0
:1000D00005900D92A430B107D9F721E0A4E0B1E07A
:1000E00001C01D92AD30B207E1F70E9455010C949A
:1000F0002A030C94000090E0FC01EC55FF4F249182
:1001000080579F4FFC018491882399F090E0880FDD
:10011000991FFC01EA57FF4FA591B491FC01E458E7
:10012000FF4F859194918FB7F894EC91E22BEC936B
:100130008FBF089590E0FC01E859FF4F2491FC0126
:10014000EC55FF4F3491FC01E057FF4FE491EE2353
:10015000C9F0222339F0233001F1A8F4213019F13C
:10016000223029F1F0E0EE0FFF1FE458FF4FA59178
:10017000B4918FB7F894EC91611126C030953E236D
:100180003C938FBF08952730A9F02830C9F0243060
:1001900049F7809180008F7D03C0809180008F7728
:1001A00080938000DFCF84B58F7784BDDBCF84B5AB
:1001B0008F7DFBCF8091B0008F778093B000D2CF3E
:1001C0008091B0008F7DF9CF3E2BDACF3FB7F89406
:1001D0008091090190910A01A0910B01B0910C014D
:1001E00026B5A89B05C02F3F19F00196A11DB11D92
:1001F0003FBFBA2FA92F982F8827BC01CD01620FCE
:10020000711D811D911D42E0660F771F881F991F88
:100210004A95D1F708951F920F920FB60F921124AD
:100220002F933F938F939F93AF93BF93809105013B
:1002300090910601A0910701B0910801309104014D
:1002400023E0230F2D3758F50196A11DB11D2093F2
:1002500004018093050190930601A0930701B093D8
:1002600008018091090190910A01A0910B01B091C0
:100270000C010196A11DB11D8093090190930A0103
:10028000A0930B01B0930C01BF91AF919F918F91FF
:100290003F912F910F900FBE0F901F90189526E859
:1002A000230F0296A11DB11DD2CF789484B5826030
:1002B00084BD84B5816084BD85B5826085BD85B50A
:1002C000816085BD80916E00816080936E00109288
:1002D0008100809181008260809381008091810003
:1002E0008160809381008091800081608093800094
:1002F0008091B10084608093B1008091B0008160F2
:100300008093B00080917A00846080937A0080911D
:100310007A00826080937A0080917A008160809375
:100320007A0080917A00806880937A001092C100F0
:100330008AE00E947B008BE00E947B008CE00E94A0
:100340007B008DE00E947B0080E480937C008091A4
:100350007A00806480937A0080917A0086FDFCCFD9
:100360008091780060917900762F682F072E000C1D
:10037000880B990B611571058105910511F00E949B
:10038000BE0294E0892E912CA12CB12CC0E0D0E0CB
:1003900060E08AE00E949A0060E08BE00E949A0090
:1003A00060E08CE00E949A0060E08DE00E949A007C
:1003B0000E946F02A50194010E94C702613071057D
:1003C000E1F16CF5672BA1F10E94E6002B013C01E5
:1003D00080EDC82E87E0D82EE12CF12C0E94E6009B
:1003E0006419750986099709683E7340810591056E
:1003F000A8F321E0C21AD108E108F10888EE480EFE
:1004000083E0581E611C711CC114D104E104F10485
:1004100029F7209709F4BCCF0E940000B9CF6230C1
:10042000710571F06330710579F661E08DE002C00D
:1004300061E08AE00E949A00C7CF61E08BE0FACFCA
:1004400061E08CE0F7CF8F929F92AF92BF92CF92F4
:10045000DF92EF92FF92CF93DF93EC016881798175
:100460008A819B81611571058105910521F464E202
:1004700079ED8BE597E02DE133EF41E050E00E940C
:10048000C70249015A019B01AC01A7EAB1E40E94ED
:10049000E6026B017C01ACEEB4EFA50194010E9471
:1004A000F402C60ED71EE81EF91EF7FE06C081E054
:1004B000C81AD108E10880E8F80AC882D982EA821D
:1004C000FB82C701B6019F77DF91CF91FF90EF903C
:1004D000DF90CF90BF90AF909F908F9008958F92B4
:1004E0009F92AF92BF92CF92DF92EF92FF92609174
:1004F0000001709101018091020190910301611549
:1005000071058105910521F464E279ED8BE597E0B1
:100510002DE133EF41E050E00E94C70249015A014A
:100520009B01AC01A7EAB1E40E94E6026B017C01E9
:10053000ACEEB4EFA50194010E94F402C60ED71EE2
:10054000E81EF91EF7FE06C081E0C81AD108E108CE
:1005500080E8F80AC0920001D0920101E092020105
:10056000F0920301C701B6019F77FF90EF90DF90F3
:10057000CF90BF90AF909F908F90089560930001AF
:100580007093010180930201909303010895052E59
:1005900097FB1EF400940E94DE0257FD07D00E94D4
:1005A000F90207FC03D04EF40C94DE0250954095FE
:1005B000309521953F4F4F4F5F4F0895909580950F
:1005C000709561957F4F8F4F9F4F08950E941B0339
:1005D000A59F900DB49F900DA49F800D911D112497
:1005E0000895B7FF0C94E6020E94E602821B930B6B
:1005F0000895A1E21A2EAA1BBB1BFD010DC0AA1F64
:10060000BB1FEE1FFF1FA217B307E407F50720F07B
:10061000A21BB30BE40BF50B661F771F881F991FF6
:100620001A9469F760957095809590959B01AC013F
:10063000BD01CF010895A29FB001B39FC001A39F48
:10064000700D811D1124911DB29F700D811D11240B
:08065000911D0895F894FFCFFD
:04065800010000009D
:00000001FF
